:020000040800F2
:1000000000000220F9020008490300084903000823
:1000100049030008490300084903000800000000E4
:10002000000000000000000000000000490300087C
:1000300049030008000000004903000849030008C4
:100040004903000849030008490300084903000860
:100050004903000849030008490300084903000850
:100060004903000849030008490300084903000840
:100070004903000849030008490300084903000830
:100080004903000849030008490300084903000820
:100090004903000849030008490300084903000810
:1000A0004903000849030008490300084903000800
:1000B00049030008490300084903000849030008F0
:1000C00049030008490300084903000849030008E0
:1000D00049030008490300084903000849030008D0
:1000E00049030008490300084903000849030008C0
:1000F00049030008490300084903000849030008B0
:10010000490300084903000849030008490300089F
:10011000490300084903000849030008490300088F
:10012000490300084903000849030008490300087F
:100130004903000800000000000000004903000817
:10014000490300084903000849030008490300085F
:10015000490300084903000849030008490300084F
:10016000490300084903000849030008490300083F
:100170004903000849030008490300080000000083
:10018000000000004903000800000000000000001B
:1001900049030008000000000000000049030008B7
:1001A00000000000000000000000000049030008FB
:1001B00049030008490300084903000849030008EF
:0401C00049030008E7
:1001C4000348044B834202D0034B03B118477047E2
:1001D4000000002000000020000000000548064B3D
:1001E4001B1AD90F01EBA301491002D0034B03B131
:1001F40018477047000000200000002000000000A5
:1002040010B5064C237843B9FFF7DAFF044B13B15A
:100214000448AFF300800123237010BD00000020C8
:10022400000000009403000808B5054B1BB1054904
:100234000548AFF30080BDE80840FFF7CFBF00BF1B
:1002440000000000040000209403000808B500F03A
:1002540021F80A4A136B43F001031363A2F56052B9
:10026400136823F47F6323F00F031360136843F4CC
:100274008063136000F02AF8FCE700BF00380240F6
:10028400034AD2F8883043F47003C2F888307047C8
:1002940000ED00E04FF0E02300221A616FF07F418F
:1002A40059619A6105221A6170474FF47A5303FB2E
:1002B40000F001384FF0E023586100229A614FF0BA
:1002C400E0231B6913F4803FF9D0704710B5084C44
:1002D400636943F020036361C820FFF7E6FF6369A5
:1002E40023F03F036361C820FFF7DFFF10BD00BFA9
:1002F40000000240DFF834D00D480E490E4A0023B6
:1003040002E0D458C4500433C4188C42F9D30B4AC5
:100314000B4C002301E013600432A242FBD3FFF72D
:10032400AFFF00F011F8FFF791FF704700000220C3
:100334000000002000000020B4030008000000209A
:100344001C000020FEE7000070B50D4D0D4C641B31
:10035400A4100026A64209D10B4D0C4C00F018F84D
:10036400641BA4100026A64205D170BD55F8043BB9
:1003740098470136EEE755F8043B98470136F2E713
:10038400AC030008AC030008AC030008B003000889
:10039400F8B500BFF8BC08BC9E467047F8B500BF6E
:0803A400F8BC08BC9E4670473E
:0403AC002D02000816
:0403B000050200083A
:04000005080002F9F4
:00000001FF
