:020000040800F2
:1000000000000220A5020008F5020008F502000821
:10001000F5020008F5020008F502000800000000E3
:10002000000000000000000000000000F5020008D1
:10003000F502000800000000F5020008F5020008C3
:10004000F5020008F5020008F5020008F5020008B4
:10005000F5020008F5020008F5020008F5020008A4
:10006000F5020008F5020008F5020008F502000894
:10007000F5020008F5020008F5020008F502000884
:10008000F5020008F5020008F5020008F502000874
:10009000F5020008F5020008F5020008F502000864
:1000A000F5020008F5020008F5020008F502000854
:1000B000F5020008F5020008F5020008F502000844
:1000C000F5020008F5020008F5020008F502000834
:1000D000F5020008F5020008F5020008F502000824
:1000E000F5020008F5020008F5020008F502000814
:1000F000F5020008F5020008F5020008F502000804
:10010000F5020008F5020008F5020008F5020008F3
:10011000F5020008F5020008F5020008F5020008E3
:10012000F5020008F5020008F5020008F5020008D3
:10013000F50200080000000000000000F5020008C1
:10014000F5020008F5020008F5020008F5020008B3
:10015000F5020008F5020008F5020008F5020008A3
:10016000F5020008F5020008F5020008F502000893
:10017000F5020008F5020008F50200080000000082
:1001800000000000F5020008000000000000000070
:10019000F50200080000000000000000F502000861
:1001A000000000000000000000000000F502000850
:1001B000F5020008F5020008F5020008F502000843
:0401C000F50200083C
:1001C40010B5054C237833B9044B13B10448AFF38D
:1001D40000800123237010BD0000002000000000F7
:1001E4004003000808B5034B1BB103490348AFF3B0
:1001F400008008BD00000000040000204003000847
:100204004FF0E02300221A616FF07F4159619A6137
:1002140005221A6170474FF47A5303FB00F001384A
:100224004FF0E023586100229A614FF0E0231B69EC
:1002340013F4803FF9D0704708B5FFF7E1FF114A86
:10024400136B43F001031363A2F56052136823F4A4
:100254007F6323F00F031360136843F48063136018
:10026400094C636943F0200363614FF4FA70FFF7AC
:10027400D2FF636923F03F0363614FF4FA70FFF721
:10028400CAFFEDE70038024000000240034AD2F8FA
:10029400883043F47003C2F88830704700ED00E002
:1002A400DFF834D00D480E490E4A002302E0D4583A
:1002B400C4500433C4188C42F9D30B4A0B4C0023AA
:1002C40001E013600432A242FBD3FFF7DFFF00F02A
:1002D40011F8FFF7B1FF7047000002200000002072
:1002E4000000002060030008000000201C00002023
:1002F400FEE7000070B50D4D0D4C641BA4100026E4
:10030400A64209D10B4D0C4C00F018F8641BA41044
:100314000026A64205D170BD55F8043B9847013626
:10032400EEE755F8043B98470136F2E75803000816
:1003340058030008580300085C030008F8B500BF20
:10034400F8BC08BC9E467047F8B500BFF8BC08BCB2
:040354009E4670470A
:04035800E9010008AF
:04035C00C5010008CF
:04000005080002A548
:00000001FF
